{
    "contractName": "Bebida",
    "abi": [
        {
            "anonymous": false,
            "inputs": [
                {
                    "indexed": true,
                    "internalType": "address",
                    "name": "previousOwner",
                    "type": "address"
                },
                {
                    "indexed": true,
                    "internalType": "address",
                    "name": "newOwner",
                    "type": "address"
                }
            ],
            "name": "OwnershipTransferred",
            "type": "event"
        },
        {
            "inputs": [
                {
                    "internalType": "uint256",
                    "name": "",
                    "type": "uint256"
                }
            ],
            "name": "bebidas",
            "outputs": [
                {
                    "internalType": "uint256",
                    "name": "bebidaId",
                    "type": "uint256"
                },
                {
                    "internalType": "string",
                    "name": "nombreBebida",
                    "type": "string"
                },
                {
                    "internalType": "string",
                    "name": "sabor",
                    "type": "string"
                },
                {
                    "internalType": "uint256",
                    "name": "precio",
                    "type": "uint256"
                }
            ],
            "stateMutability": "view",
            "type": "function"
        },
        {
            "inputs": [
                {
                    "internalType": "uint256",
                    "name": "bebidaId",
                    "type": "uint256"
                }
            ],
            "name": "getBebidaById",
            "outputs": [
                {
                    "components": [
                        {
                            "internalType": "uint256",
                            "name": "bebidaId",
                            "type": "uint256"
                        },
                        {
                            "internalType": "string",
                            "name": "nombreBebida",
                            "type": "string"
                        },
                        {
                            "internalType": "string",
                            "name": "sabor",
                            "type": "string"
                        },
                        {
                            "internalType": "uint256",
                            "name": "precio",
                            "type": "uint256"
                        }
                    ],
                    "internalType": "struct Bebida.BebidaStruct",
                    "name": "",
                    "type": "tuple"
                }
            ],
            "stateMutability": "view",
            "type": "function"
        },
        {
            "inputs": [],
            "name": "getBebidas",
            "outputs": [
                {
                    "components": [
                        {
                            "internalType": "uint256",
                            "name": "bebidaId",
                            "type": "uint256"
                        },
                        {
                            "internalType": "string",
                            "name": "nombreBebida",
                            "type": "string"
                        },
                        {
                            "internalType": "string",
                            "name": "sabor",
                            "type": "string"
                        },
                        {
                            "internalType": "uint256",
                            "name": "precio",
                            "type": "uint256"
                        }
                    ],
                    "internalType": "struct Bebida.BebidaStruct[]",
                    "name": "",
                    "type": "tuple[]"
                }
            ],
            "stateMutability": "view",
            "type": "function"
        },
        {
            "inputs": [
                {
                    "internalType": "string",
                    "name": "_nombreBebida",
                    "type": "string"
                },
                {
                    "internalType": "string",
                    "name": "_sabor",
                    "type": "string"
                },
                {
                    "internalType": "uint256",
                    "name": "_precio",
                    "type": "uint256"
                }
            ],
            "name": "insertBebida",
            "outputs": [
                {
                    "internalType": "uint256",
                    "name": "",
                    "type": "uint256"
                }
            ],
            "stateMutability": "nonpayable",
            "type": "function"
        },
        {
            "inputs": [],
            "name": "owner",
            "outputs": [
                {
                    "internalType": "address",
                    "name": "",
                    "type": "address"
                }
            ],
            "stateMutability": "view",
            "type": "function"
        },
        {
            "inputs": [],
            "name": "renounceOwnership",
            "outputs": [],
            "stateMutability": "nonpayable",
            "type": "function"
        },
        {
            "inputs": [
                {
                    "internalType": "address",
                    "name": "newOwner",
                    "type": "address"
                }
            ],
            "name": "transferOwnership",
            "outputs": [],
            "stateMutability": "nonpayable",
            "type": "function"
        }
    ],
    "bytecode": "608060405234801561001057600080fd5b5061001a3361001f565b61006f565b600080546001600160a01b038381166001600160a01b0319831681178455604051919092169283917f8be0079c531659141344cd1fd0a4f28419497f9722a3daafe3b4186f6b6457e09190a35050565b610c768061007e6000396000f3fe608060405234801561001057600080fd5b506004361061007d5760003560e01c8063a2d8ce621161005b578063a2d8ce62146100d3578063db2f93b7146100f3578063f2fde38b14610114578063fc5f37771461012757600080fd5b8063715018a6146100825780637dbec50c1461008c5780638da5cb5b146100b8575b600080fd5b61008a61013c565b005b61009f61009a3660046107ff565b610150565b6040516100af949392919061085e565b60405180910390f35b6000546040516001600160a01b0390911681526020016100af565b6100e66100e13660046107ff565b610289565b6040516100af91906108ea565b6101066101013660046109a7565b610411565b6040519081526020016100af565b61008a610122366004610a14565b6104ab565b61012f610529565b6040516100af9190610a3d565b610144610755565b61014e60006107af565b565b6002602052600090815260409020805460018201805491929161017290610a9f565b80601f016020809104026020016040519081016040528092919081815260200182805461019e90610a9f565b80156101eb5780601f106101c0576101008083540402835291602001916101eb565b820191906000526020600020905b8154815290600101906020018083116101ce57829003601f168201915b50505050509080600201805461020090610a9f565b80601f016020809104026020016040519081016040528092919081815260200182805461022c90610a9f565b80156102795780601f1061024e57610100808354040283529160200191610279565b820191906000526020600020905b81548152906001019060200180831161025c57829003601f168201915b5050505050908060030154905084565b6102b46040518060800160405280600081526020016060815260200160608152602001600081525090565b60026000838152602001908152602001600020604051806080016040529081600082015481526020016001820180546102ec90610a9f565b80601f016020809104026020016040519081016040528092919081815260200182805461031890610a9f565b80156103655780601f1061033a57610100808354040283529160200191610365565b820191906000526020600020905b81548152906001019060200180831161034857829003601f168201915b5050505050815260200160028201805461037e90610a9f565b80601f01602080910402602001604051908101604052809291908181526020018280546103aa90610a9f565b80156103f75780601f106103cc576101008083540402835291602001916103f7565b820191906000526020600020905b8154815290600101906020018083116103da57829003601f168201915b505050505081526020016003820154815250509050919050565b600061041b610755565b610429600180546001019055565b600061043460015490565b604080516080810182528281526020808201898152828401899052606083018890526000858152600290925292902081518155915192935091829190600182019061047f9082610b22565b50604082015160028201906104949082610b22565b506060919091015160039091015550949350505050565b6104b3610755565b6001600160a01b03811661051d5760405162461bcd60e51b815260206004820152602660248201527f4f776e61626c653a206e6577206f776e657220697320746865207a65726f206160448201526564647265737360d01b60648201526084015b60405180910390fd5b610526816107af565b50565b6060600061053660015490565b67ffffffffffffffff81111561054e5761054e610904565b6040519080825280602002602001820160405280156105aa57816020015b6105976040518060800160405280600081526020016060815260200160608152602001600081525090565b81526020019060019003908161056c5790505b50905060005b60015481101561074f5760006002816105ca846001610bf8565b81526020019081526020016000209050806040518060800160405290816000820154815260200160018201805461060090610a9f565b80601f016020809104026020016040519081016040528092919081815260200182805461062c90610a9f565b80156106795780601f1061064e57610100808354040283529160200191610679565b820191906000526020600020905b81548152906001019060200180831161065c57829003601f168201915b5050505050815260200160028201805461069290610a9f565b80601f01602080910402602001604051908101604052809291908181526020018280546106be90610a9f565b801561070b5780601f106106e05761010080835404028352916020019161070b565b820191906000526020600020905b8154815290600101906020018083116106ee57829003601f168201915b5050505050815260200160038201548152505083838151811061073057610730610c11565b602002602001018190525050808061074790610c27565b9150506105b0565b50919050565b6000546001600160a01b0316331461014e5760405162461bcd60e51b815260206004820181905260248201527f4f776e61626c653a2063616c6c6572206973206e6f7420746865206f776e65726044820152606401610514565b600080546001600160a01b038381166001600160a01b0319831681178455604051919092169283917f8be0079c531659141344cd1fd0a4f28419497f9722a3daafe3b4186f6b6457e09190a35050565b60006020828403121561081157600080fd5b5035919050565b6000815180845260005b8181101561083e57602081850181015186830182015201610822565b506000602082860101526020601f19601f83011685010191505092915050565b8481526080602082015260006108776080830186610818565b82810360408401526108898186610818565b91505082606083015295945050505050565b8051825260006020820151608060208501526108ba6080850182610818565b9050604083015184820360408601526108d38282610818565b915050606083015160608501528091505092915050565b6020815260006108fd602083018461089b565b9392505050565b634e487b7160e01b600052604160045260246000fd5b600082601f83011261092b57600080fd5b813567ffffffffffffffff8082111561094657610946610904565b604051601f8301601f19908116603f0116810190828211818310171561096e5761096e610904565b8160405283815286602085880101111561098757600080fd5b836020870160208301376000602085830101528094505050505092915050565b6000806000606084860312156109bc57600080fd5b833567ffffffffffffffff808211156109d457600080fd5b6109e08783880161091a565b945060208601359150808211156109f657600080fd5b50610a038682870161091a565b925050604084013590509250925092565b600060208284031215610a2657600080fd5b81356001600160a01b03811681146108fd57600080fd5b6000602080830181845280855180835260408601915060408160051b870101925083870160005b82811015610a9257603f19888603018452610a8085835161089b565b94509285019290850190600101610a64565b5092979650505050505050565b600181811c90821680610ab357607f821691505b60208210810361074f57634e487b7160e01b600052602260045260246000fd5b601f821115610b1d57600081815260208120601f850160051c81016020861015610afa5750805b601f850160051c820191505b81811015610b1957828155600101610b06565b5050505b505050565b815167ffffffffffffffff811115610b3c57610b3c610904565b610b5081610b4a8454610a9f565b84610ad3565b602080601f831160018114610b855760008415610b6d5750858301515b600019600386901b1c1916600185901b178555610b19565b600085815260208120601f198616915b82811015610bb457888601518255948401946001909101908401610b95565b5085821015610bd25787850151600019600388901b60f8161c191681555b5050505050600190811b01905550565b634e487b7160e01b600052601160045260246000fd5b80820180821115610c0b57610c0b610be2565b92915050565b634e487b7160e01b600052603260045260246000fd5b600060018201610c3957610c39610be2565b506001019056fea264697066735822122054f389ab568cba5bdc7cdee0f85bdbcb35e7150ff0d55338f242b6aa114fd66f64736f6c63430008130033",
    "sourcePath": "d:/dapps/Equipo9LosCampos/contracts/Bebida.sol",
    "compiler": {
        "name": "solc",
        "version": "0.8.19+commit.7dd6d404"
    },
    "functionHashes": {
        "bebidas(uint256)": "7dbec50c",
        "getBebidaById(uint256)": "a2d8ce62",
        "getBebidas()": "fc5f3777",
        "insertBebida(string,string,uint256)": "db2f93b7",
        "owner()": "8da5cb5b",
        "renounceOwnership()": "715018a6",
        "transferOwnership(address)": "f2fde38b"
    },
    "gasEstimates": {
        "creation": {
            "codeDepositCost": "638000",
            "executionCost": "26511",
            "totalCost": "664511"
        },
        "external": {
            "bebidas(uint256)": "infinite",
            "getBebidaById(uint256)": "infinite",
            "getBebidas()": "infinite",
            "insertBebida(string,string,uint256)": "infinite",
            "owner()": "2346",
            "renounceOwnership()": "infinite",
            "transferOwnership(address)": "28342"
        }
    }
}