{
    "contractName": "ContratoTicket",
    "abi": [
        {
            "anonymous": false,
            "inputs": [
                {
                    "indexed": true,
                    "internalType": "address",
                    "name": "previousOwner",
                    "type": "address"
                },
                {
                    "indexed": true,
                    "internalType": "address",
                    "name": "newOwner",
                    "type": "address"
                }
            ],
            "name": "OwnershipTransferred",
            "type": "event"
        },
        {
            "inputs": [
                {
                    "internalType": "uint256",
                    "name": "_idTicket",
                    "type": "uint256"
                }
            ],
            "name": "calcularTotalVenta",
            "outputs": [
                {
                    "internalType": "uint256",
                    "name": "",
                    "type": "uint256"
                }
            ],
            "stateMutability": "view",
            "type": "function"
        },
        {
            "inputs": [
                {
                    "internalType": "uint256",
                    "name": "gatoId",
                    "type": "uint256"
                },
                {
                    "internalType": "string[]",
                    "name": "items",
                    "type": "string[]"
                },
                {
                    "internalType": "uint256[]",
                    "name": "precios",
                    "type": "uint256[]"
                }
            ],
            "name": "insertTicker",
            "outputs": [
                {
                    "internalType": "uint256",
                    "name": "",
                    "type": "uint256"
                }
            ],
            "stateMutability": "nonpayable",
            "type": "function"
        },
        {
            "inputs": [
                {
                    "internalType": "uint256",
                    "name": "gatoId",
                    "type": "uint256"
                }
            ],
            "name": "obtenerDetallesGatoID",
            "outputs": [
                {
                    "components": [
                        {
                            "internalType": "uint256",
                            "name": "ticketId",
                            "type": "uint256"
                        },
                        {
                            "internalType": "uint256",
                            "name": "claveGato",
                            "type": "uint256"
                        },
                        {
                            "internalType": "string[]",
                            "name": "bebidas",
                            "type": "string[]"
                        },
                        {
                            "internalType": "uint256[]",
                            "name": "preciosBebidas",
                            "type": "uint256[]"
                        }
                    ],
                    "internalType": "struct ContratoTicket.TicketStruct[]",
                    "name": "",
                    "type": "tuple[]"
                }
            ],
            "stateMutability": "view",
            "type": "function"
        },
        {
            "inputs": [
                {
                    "internalType": "uint256",
                    "name": "_idTicket",
                    "type": "uint256"
                }
            ],
            "name": "obtenerDetallesTicketID",
            "outputs": [
                {
                    "components": [
                        {
                            "internalType": "uint256",
                            "name": "ticketId",
                            "type": "uint256"
                        },
                        {
                            "internalType": "uint256",
                            "name": "claveGato",
                            "type": "uint256"
                        },
                        {
                            "internalType": "string[]",
                            "name": "bebidas",
                            "type": "string[]"
                        },
                        {
                            "internalType": "uint256[]",
                            "name": "preciosBebidas",
                            "type": "uint256[]"
                        }
                    ],
                    "internalType": "struct ContratoTicket.TicketStruct",
                    "name": "",
                    "type": "tuple"
                }
            ],
            "stateMutability": "view",
            "type": "function"
        },
        {
            "inputs": [],
            "name": "obtenerTodasLasVentas",
            "outputs": [
                {
                    "components": [
                        {
                            "internalType": "uint256",
                            "name": "ticketId",
                            "type": "uint256"
                        },
                        {
                            "internalType": "uint256",
                            "name": "claveGato",
                            "type": "uint256"
                        },
                        {
                            "internalType": "string[]",
                            "name": "bebidas",
                            "type": "string[]"
                        },
                        {
                            "internalType": "uint256[]",
                            "name": "preciosBebidas",
                            "type": "uint256[]"
                        }
                    ],
                    "internalType": "struct ContratoTicket.TicketStruct[]",
                    "name": "",
                    "type": "tuple[]"
                }
            ],
            "stateMutability": "view",
            "type": "function"
        },
        {
            "inputs": [],
            "name": "owner",
            "outputs": [
                {
                    "internalType": "address",
                    "name": "",
                    "type": "address"
                }
            ],
            "stateMutability": "view",
            "type": "function"
        },
        {
            "inputs": [],
            "name": "renounceOwnership",
            "outputs": [],
            "stateMutability": "nonpayable",
            "type": "function"
        },
        {
            "inputs": [
                {
                    "internalType": "uint256",
                    "name": "",
                    "type": "uint256"
                }
            ],
            "name": "tickets",
            "outputs": [
                {
                    "internalType": "uint256",
                    "name": "ticketId",
                    "type": "uint256"
                },
                {
                    "internalType": "uint256",
                    "name": "claveGato",
                    "type": "uint256"
                }
            ],
            "stateMutability": "view",
            "type": "function"
        },
        {
            "inputs": [
                {
                    "internalType": "address",
                    "name": "newOwner",
                    "type": "address"
                }
            ],
            "name": "transferOwnership",
            "outputs": [],
            "stateMutability": "nonpayable",
            "type": "function"
        }
    ],
    "bytecode": "608060405234801561001057600080fd5b5061001a3361001f565b61006f565b600080546001600160a01b038381166001600160a01b0319831681178455604051919092169283917f8be0079c531659141344cd1fd0a4f28419497f9722a3daafe3b4186f6b6457e09190a35050565b6111b88061007e6000396000f3fe608060405234801561001057600080fd5b50600436106100935760003560e01c806370ee9ce11161006657806370ee9ce114610133578063715018a6146101465780638da5cb5b14610150578063e7640bea1461016b578063f2fde38b1461017e57600080fd5b806317151613146100985780632fbf8533146100c15780634d282566146100d657806350b44712146100f7575b600080fd5b6100ab6100a6366004610c29565b610191565b6040516100b89190610d3f565b60405180910390f35b6100c9610317565b6040516100b89190610d59565b6100e96100e4366004610c29565b610550565b6040519081526020016100b8565b61011e610105366004610c29565b6002602052600090815260409020805460019091015482565b604080519283526020830191909152016100b8565b6100c9610141366004610c29565b6106fe565b61014e610943565b005b6000546040516001600160a01b0390911681526020016100b8565b6100e9610179366004610e84565b610957565b61014e61018c366004610fb8565b6109f8565b6101bc6040518060800160405280600081526020016000815260200160608152602001606081525090565b60008281526002602081815260408084208151608081018352815481526001820154818501529381018054835181860281018601855281815295969295938701949192909184015b828210156102b057838290600052602060002001805461022390610fe1565b80601f016020809104026020016040519081016040528092919081815260200182805461024f90610fe1565b801561029c5780601f106102715761010080835404028352916020019161029c565b820191906000526020600020905b81548152906001019060200180831161027f57829003601f168201915b505050505081526020019060010190610204565b5050505081526020016003820180548060200260200160405190810160405280929190818152602001828054801561030757602002820191906000526020600020905b8154815260200190600101908083116102f3575b5050505050815250509050919050565b6060600061032460015490565b67ffffffffffffffff81111561033c5761033c610dae565b60405190808252806020026020018201604052801561039857816020015b6103856040518060800160405280600081526020016000815260200160608152602001606081525090565b81526020019060019003908161035a5790505b50905060005b60015481101561054a5760006002816103b884600161102b565b8152602001908152602001600020905080604051806080016040529081600082015481526020016001820154815260200160028201805480602002602001604051908101604052809291908181526020016000905b828210156104b957838290600052602060002001805461042c90610fe1565b80601f016020809104026020016040519081016040528092919081815260200182805461045890610fe1565b80156104a55780601f1061047a576101008083540402835291602001916104a5565b820191906000526020600020905b81548152906001019060200180831161048857829003601f168201915b50505050508152602001906001019061040d565b5050505081526020016003820180548060200260200160405190810160405280929190818152602001828054801561051057602002820191906000526020600020905b8154815260200190600101908083116104fc575b50505050508152505083838151811061052b5761052b611044565b60200260200101819052505080806105429061105a565b91505061039e565b50919050565b600081815260026020818152604080842081516080810183528154815260018201548185015293810180548351818602810186018552818152879695939486019390929190879084015b828210156106465783829060005260206000200180546105b990610fe1565b80601f01602080910402602001604051908101604052809291908181526020018280546105e590610fe1565b80156106325780601f1061060757610100808354040283529160200191610632565b820191906000526020600020905b81548152906001019060200180831161061557829003601f168201915b50505050508152602001906001019061059a565b5050505081526020016003820180548060200260200160405190810160405280929190818152602001828054801561069d57602002820191906000526020600020905b815481526020019060010190808311610689575b50505050508152505090506000805b8260600151518110156106f657826060015181815181106106cf576106cf611044565b6020026020010151826106e2919061102b565b9150806106ee8161105a565b9150506106ac565b509392505050565b6060600061070b60015490565b67ffffffffffffffff81111561072357610723610dae565b60405190808252806020026020018201604052801561077f57816020015b61076c6040518060800160405280600081526020016000815260200160608152602001606081525090565b8152602001906001900390816107415790505b50905060005b60015481101561093c57600060028161079f84600161102b565b81526020019081526020016000209050848160010154036109295780604051806080016040529081600082015481526020016001820154815260200160028201805480602002602001604051908101604052809291908181526020016000905b828210156108ab57838290600052602060002001805461081e90610fe1565b80601f016020809104026020016040519081016040528092919081815260200182805461084a90610fe1565b80156108975780601f1061086c57610100808354040283529160200191610897565b820191906000526020600020905b81548152906001019060200180831161087a57829003601f168201915b5050505050815260200190600101906107ff565b5050505081526020016003820180548060200260200160405190810160405280929190818152602001828054801561090257602002820191906000526020600020905b8154815260200190600101908083116108ee575b50505050508152505083838151811061091d5761091d611044565b60200260200101819052505b50806109348161105a565b915050610785565b5092915050565b61094b610a76565b6109556000610ad0565b565b6000610961610a76565b61096f600180546001019055565b600061097a60015490565b604080516080810182528281526020808201898152828401898152606084018990526000868152600280855295902084518155915160018301555180519596509294859491936109cf93928501920190610b20565b50606082015180516109eb916003840191602090910190610b76565b5092979650505050505050565b610a00610a76565b6001600160a01b038116610a6a5760405162461bcd60e51b815260206004820152602660248201527f4f776e61626c653a206e6577206f776e657220697320746865207a65726f206160448201526564647265737360d01b60648201526084015b60405180910390fd5b610a7381610ad0565b50565b6000546001600160a01b031633146109555760405162461bcd60e51b815260206004820181905260248201527f4f776e61626c653a2063616c6c6572206973206e6f7420746865206f776e65726044820152606401610a61565b600080546001600160a01b038381166001600160a01b0319831681178455604051919092169283917f8be0079c531659141344cd1fd0a4f28419497f9722a3daafe3b4186f6b6457e09190a35050565b828054828255906000526020600020908101928215610b66579160200282015b82811115610b665782518290610b5690826110c2565b5091602001919060010190610b40565b50610b72929150610bbd565b5090565b828054828255906000526020600020908101928215610bb1579160200282015b82811115610bb1578251825591602001919060010190610b96565b50610b72929150610bda565b80821115610b72576000610bd18282610bef565b50600101610bbd565b5b80821115610b725760008155600101610bdb565b508054610bfb90610fe1565b6000825580601f10610c0b575050565b601f016020900490600052602060002090810190610a739190610bda565b600060208284031215610c3b57600080fd5b5035919050565b600081518084526020808501945080840160005b83811015610c7257815187529582019590820190600101610c56565b509495945050505050565b600060808301825184526020808401518186015260408401516080604087015282815180855260a08801915060a08160051b890101945083830192506000805b82811015610d1957898703609f1901845284518051808952835b81811015610cf2578281018901518a82018a01528801610cd7565b508881018801849052601f01601f1916909701860196509385019392850192600101610cbd565b50505050505060608301518482036060860152610d368282610c42565b95945050505050565b602081526000610d526020830184610c7d565b9392505050565b6000602080830181845280855180835260408601915060408160051b870101925083870160005b828110156109eb57603f19888603018452610d9c858351610c7d565b94509285019290850190600101610d80565b634e487b7160e01b600052604160045260246000fd5b604051601f8201601f1916810167ffffffffffffffff81118282101715610ded57610ded610dae565b604052919050565b600067ffffffffffffffff821115610e0f57610e0f610dae565b5060051b60200190565b600082601f830112610e2a57600080fd5b81356020610e3f610e3a83610df5565b610dc4565b82815260059290921b84018101918181019086841115610e5e57600080fd5b8286015b84811015610e795780358352918301918301610e62565b509695505050505050565b600080600060608486031215610e9957600080fd5b8335925060208085013567ffffffffffffffff80821115610eb957600080fd5b818701915087601f830112610ecd57600080fd5b8135610edb610e3a82610df5565b81815260059190911b8301840190848101908a831115610efa57600080fd5b8585015b83811015610f8757803585811115610f165760008081fd5b8601603f81018d13610f285760008081fd5b87810135604087821115610f3e57610f3e610dae565b610f50601f8301601f19168b01610dc4565b8281528f82848601011115610f655760008081fd5b828285018c83013760009281018b019290925250845250918601918601610efe565b50965050506040870135925080831115610fa057600080fd5b5050610fae86828701610e19565b9150509250925092565b600060208284031215610fca57600080fd5b81356001600160a01b0381168114610d5257600080fd5b600181811c90821680610ff557607f821691505b60208210810361054a57634e487b7160e01b600052602260045260246000fd5b634e487b7160e01b600052601160045260246000fd5b8082018082111561103e5761103e611015565b92915050565b634e487b7160e01b600052603260045260246000fd5b60006001820161106c5761106c611015565b5060010190565b601f8211156110bd57600081815260208120601f850160051c8101602086101561109a5750805b601f850160051c820191505b818110156110b9578281556001016110a6565b5050505b505050565b815167ffffffffffffffff8111156110dc576110dc610dae565b6110f0816110ea8454610fe1565b84611073565b602080601f831160018114611125576000841561110d5750858301515b600019600386901b1c1916600185901b1785556110b9565b600085815260208120601f198616915b8281101561115457888601518255948401946001909101908401611135565b50858210156111725787850151600019600388901b60f8161c191681555b5050505050600190811b0190555056fea26469706673582212200ce8a2710ce6ba236e8e3c49b1d3f9274608594b869e3d22f2aaf971cb88372364736f6c63430008130033",
    "sourcePath": "d:/dapps/Equipo9LosCampos/contracts/Ticket.sol",
    "compiler": {
        "name": "solc",
        "version": "0.8.19+commit.7dd6d404"
    },
    "functionHashes": {
        "calcularTotalVenta(uint256)": "4d282566",
        "insertTicker(uint256,string[],uint256[])": "e7640bea",
        "obtenerDetallesGatoID(uint256)": "70ee9ce1",
        "obtenerDetallesTicketID(uint256)": "17151613",
        "obtenerTodasLasVentas()": "2fbf8533",
        "owner()": "8da5cb5b",
        "renounceOwnership()": "715018a6",
        "tickets(uint256)": "50b44712",
        "transferOwnership(address)": "f2fde38b"
    },
    "gasEstimates": {
        "creation": {
            "codeDepositCost": "907200",
            "executionCost": "26783",
            "totalCost": "933983"
        },
        "external": {
            "calcularTotalVenta(uint256)": "infinite",
            "insertTicker(uint256,string[],uint256[])": "infinite",
            "obtenerDetallesGatoID(uint256)": "infinite",
            "obtenerDetallesTicketID(uint256)": "infinite",
            "obtenerTodasLasVentas()": "infinite",
            "owner()": "2345",
            "renounceOwnership()": "infinite",
            "tickets(uint256)": "4644",
            "transferOwnership(address)": "28386"
        }
    }
}