{
    "contractName": "Gato",
    "abi": [
        {
            "anonymous": false,
            "inputs": [
                {
                    "indexed": true,
                    "internalType": "address",
                    "name": "previousOwner",
                    "type": "address"
                },
                {
                    "indexed": true,
                    "internalType": "address",
                    "name": "newOwner",
                    "type": "address"
                }
            ],
            "name": "OwnershipTransferred",
            "type": "event"
        },
        {
            "inputs": [
                {
                    "internalType": "string",
                    "name": "_nombreGato",
                    "type": "string"
                },
                {
                    "internalType": "string",
                    "name": "_colorGato",
                    "type": "string"
                },
                {
                    "internalType": "string",
                    "name": "_sexo",
                    "type": "string"
                },
                {
                    "internalType": "string",
                    "name": "_edad",
                    "type": "string"
                }
            ],
            "name": "agregarGato",
            "outputs": [
                {
                    "internalType": "uint256",
                    "name": "",
                    "type": "uint256"
                }
            ],
            "stateMutability": "nonpayable",
            "type": "function"
        },
        {
            "inputs": [
                {
                    "internalType": "uint256",
                    "name": "",
                    "type": "uint256"
                }
            ],
            "name": "gatos",
            "outputs": [
                {
                    "internalType": "uint256",
                    "name": "gatoId",
                    "type": "uint256"
                },
                {
                    "internalType": "string",
                    "name": "nombreGato",
                    "type": "string"
                },
                {
                    "internalType": "string",
                    "name": "colorGato",
                    "type": "string"
                },
                {
                    "internalType": "string",
                    "name": "sexo",
                    "type": "string"
                },
                {
                    "internalType": "string",
                    "name": "edad",
                    "type": "string"
                }
            ],
            "stateMutability": "view",
            "type": "function"
        },
        {
            "inputs": [
                {
                    "internalType": "uint256",
                    "name": "_id",
                    "type": "uint256"
                }
            ],
            "name": "getGatoById",
            "outputs": [
                {
                    "components": [
                        {
                            "internalType": "uint256",
                            "name": "gatoId",
                            "type": "uint256"
                        },
                        {
                            "internalType": "string",
                            "name": "nombreGato",
                            "type": "string"
                        },
                        {
                            "internalType": "string",
                            "name": "colorGato",
                            "type": "string"
                        },
                        {
                            "internalType": "string",
                            "name": "sexo",
                            "type": "string"
                        },
                        {
                            "internalType": "string",
                            "name": "edad",
                            "type": "string"
                        }
                    ],
                    "internalType": "struct Gato.GatoStruct",
                    "name": "",
                    "type": "tuple"
                }
            ],
            "stateMutability": "view",
            "type": "function"
        },
        {
            "inputs": [],
            "name": "getGatos",
            "outputs": [
                {
                    "components": [
                        {
                            "internalType": "uint256",
                            "name": "gatoId",
                            "type": "uint256"
                        },
                        {
                            "internalType": "string",
                            "name": "nombreGato",
                            "type": "string"
                        },
                        {
                            "internalType": "string",
                            "name": "colorGato",
                            "type": "string"
                        },
                        {
                            "internalType": "string",
                            "name": "sexo",
                            "type": "string"
                        },
                        {
                            "internalType": "string",
                            "name": "edad",
                            "type": "string"
                        }
                    ],
                    "internalType": "struct Gato.GatoStruct[]",
                    "name": "",
                    "type": "tuple[]"
                }
            ],
            "stateMutability": "view",
            "type": "function"
        },
        {
            "inputs": [],
            "name": "owner",
            "outputs": [
                {
                    "internalType": "address",
                    "name": "",
                    "type": "address"
                }
            ],
            "stateMutability": "view",
            "type": "function"
        },
        {
            "inputs": [],
            "name": "renounceOwnership",
            "outputs": [],
            "stateMutability": "nonpayable",
            "type": "function"
        },
        {
            "inputs": [
                {
                    "internalType": "address",
                    "name": "newOwner",
                    "type": "address"
                }
            ],
            "name": "transferOwnership",
            "outputs": [],
            "stateMutability": "nonpayable",
            "type": "function"
        }
    ],
    "bytecode": "608060405234801561001057600080fd5b5061001a3361001f565b61006f565b600080546001600160a01b038381166001600160a01b0319831681178455604051919092169283917f8be0079c531659141344cd1fd0a4f28419497f9722a3daafe3b4186f6b6457e09190a35050565b61107f8061007e6000396000f3fe608060405234801561001057600080fd5b506004361061007d5760003560e01c8063715018a61161005b578063715018a6146100e557806385d67b7b146100ef5780638da5cb5b1461010f578063f2fde38b1461012a57600080fd5b80630c409013146100825780633031299c146100af5780633754b234146100c4575b600080fd5b610095610090366004610b80565b61013d565b6040516100a6959493929190610bdf565b60405180910390f35b6100b761038c565b6040516100a69190610cb3565b6100d76100d2366004610db8565b6106d9565b6040519081526020016100a6565b6100ed61079b565b005b6101026100fd366004610b80565b6107af565b6040516100a69190610e65565b6000546040516001600160a01b0390911681526020016100a6565b6100ed610138366004610e7f565b610a58565b6002602052600090815260409020805460018201805491929161015f90610ea8565b80601f016020809104026020016040519081016040528092919081815260200182805461018b90610ea8565b80156101d85780601f106101ad576101008083540402835291602001916101d8565b820191906000526020600020905b8154815290600101906020018083116101bb57829003601f168201915b5050505050908060020180546101ed90610ea8565b80601f016020809104026020016040519081016040528092919081815260200182805461021990610ea8565b80156102665780601f1061023b57610100808354040283529160200191610266565b820191906000526020600020905b81548152906001019060200180831161024957829003601f168201915b50505050509080600301805461027b90610ea8565b80601f01602080910402602001604051908101604052809291908181526020018280546102a790610ea8565b80156102f45780601f106102c9576101008083540402835291602001916102f4565b820191906000526020600020905b8154815290600101906020018083116102d757829003601f168201915b50505050509080600401805461030990610ea8565b80601f016020809104026020016040519081016040528092919081815260200182805461033590610ea8565b80156103825780601f1061035757610100808354040283529160200191610382565b820191906000526020600020905b81548152906001019060200180831161036557829003601f168201915b5050505050905085565b6060600061039960015490565b67ffffffffffffffff8111156103b1576103b1610d15565b60405190808252806020026020018201604052801561041457816020015b6104016040518060a0016040528060008152602001606081526020016060815260200160608152602001606081525090565b8152602001906001900390816103cf5790505b50905060005b6001548110156106d3576000600281610434846001610ef2565b81526020019081526020016000209050806040518060a00160405290816000820154815260200160018201805461046a90610ea8565b80601f016020809104026020016040519081016040528092919081815260200182805461049690610ea8565b80156104e35780601f106104b8576101008083540402835291602001916104e3565b820191906000526020600020905b8154815290600101906020018083116104c657829003601f168201915b505050505081526020016002820180546104fc90610ea8565b80601f016020809104026020016040519081016040528092919081815260200182805461052890610ea8565b80156105755780601f1061054a57610100808354040283529160200191610575565b820191906000526020600020905b81548152906001019060200180831161055857829003601f168201915b5050505050815260200160038201805461058e90610ea8565b80601f01602080910402602001604051908101604052809291908181526020018280546105ba90610ea8565b80156106075780601f106105dc57610100808354040283529160200191610607565b820191906000526020600020905b8154815290600101906020018083116105ea57829003601f168201915b5050505050815260200160048201805461062090610ea8565b80601f016020809104026020016040519081016040528092919081815260200182805461064c90610ea8565b80156106995780601f1061066e57610100808354040283529160200191610699565b820191906000526020600020905b81548152906001019060200180831161067c57829003601f168201915b5050505050815250508383815181106106b4576106b4610f0b565b60200260200101819052505080806106cb90610f21565b91505061041a565b50919050565b60006106e3610ad6565b6106f1600180546001019055565b60006106fc60015490565b6040805160a08101825282815260208082018a81528284018a905260608301899052608083018890526000858152600290925292902081518155915192935091829190600182019061074e9082610f89565b50604082015160028201906107639082610f89565b50606082015160038201906107789082610f89565b506080820151600482019061078d9082610f89565b509298975050505050505050565b6107a3610ad6565b6107ad6000610b30565b565b6107e16040518060a0016040528060008152602001606081526020016060815260200160608152602001606081525090565b600260008381526020019081526020016000206040518060a00160405290816000820154815260200160018201805461081990610ea8565b80601f016020809104026020016040519081016040528092919081815260200182805461084590610ea8565b80156108925780601f1061086757610100808354040283529160200191610892565b820191906000526020600020905b81548152906001019060200180831161087557829003601f168201915b505050505081526020016002820180546108ab90610ea8565b80601f01602080910402602001604051908101604052809291908181526020018280546108d790610ea8565b80156109245780601f106108f957610100808354040283529160200191610924565b820191906000526020600020905b81548152906001019060200180831161090757829003601f168201915b5050505050815260200160038201805461093d90610ea8565b80601f016020809104026020016040519081016040528092919081815260200182805461096990610ea8565b80156109b65780601f1061098b576101008083540402835291602001916109b6565b820191906000526020600020905b81548152906001019060200180831161099957829003601f168201915b505050505081526020016004820180546109cf90610ea8565b80601f01602080910402602001604051908101604052809291908181526020018280546109fb90610ea8565b8015610a485780601f10610a1d57610100808354040283529160200191610a48565b820191906000526020600020905b815481529060010190602001808311610a2b57829003601f168201915b5050505050815250509050919050565b610a60610ad6565b6001600160a01b038116610aca5760405162461bcd60e51b815260206004820152602660248201527f4f776e61626c653a206e6577206f776e657220697320746865207a65726f206160448201526564647265737360d01b60648201526084015b60405180910390fd5b610ad381610b30565b50565b6000546001600160a01b031633146107ad5760405162461bcd60e51b815260206004820181905260248201527f4f776e61626c653a2063616c6c6572206973206e6f7420746865206f776e65726044820152606401610ac1565b600080546001600160a01b038381166001600160a01b0319831681178455604051919092169283917f8be0079c531659141344cd1fd0a4f28419497f9722a3daafe3b4186f6b6457e09190a35050565b600060208284031215610b9257600080fd5b5035919050565b6000815180845260005b81811015610bbf57602081850181015186830182015201610ba3565b506000602082860101526020601f19601f83011685010191505092915050565b85815260a060208201526000610bf860a0830187610b99565b8281036040840152610c0a8187610b99565b90508281036060840152610c1e8186610b99565b90508281036080840152610c328185610b99565b98975050505050505050565b805182526000602082015160a06020850152610c5d60a0850182610b99565b905060408301518482036040860152610c768282610b99565b91505060608301518482036060860152610c908282610b99565b91505060808301518482036080860152610caa8282610b99565b95945050505050565b6000602080830181845280855180835260408601915060408160051b870101925083870160005b82811015610d0857603f19888603018452610cf6858351610c3e565b94509285019290850190600101610cda565b5092979650505050505050565b634e487b7160e01b600052604160045260246000fd5b600082601f830112610d3c57600080fd5b813567ffffffffffffffff80821115610d5757610d57610d15565b604051601f8301601f19908116603f01168101908282118183101715610d7f57610d7f610d15565b81604052838152866020858801011115610d9857600080fd5b836020870160208301376000602085830101528094505050505092915050565b60008060008060808587031215610dce57600080fd5b843567ffffffffffffffff80821115610de657600080fd5b610df288838901610d2b565b95506020870135915080821115610e0857600080fd5b610e1488838901610d2b565b94506040870135915080821115610e2a57600080fd5b610e3688838901610d2b565b93506060870135915080821115610e4c57600080fd5b50610e5987828801610d2b565b91505092959194509250565b602081526000610e786020830184610c3e565b9392505050565b600060208284031215610e9157600080fd5b81356001600160a01b0381168114610e7857600080fd5b600181811c90821680610ebc57607f821691505b6020821081036106d357634e487b7160e01b600052602260045260246000fd5b634e487b7160e01b600052601160045260246000fd5b80820180821115610f0557610f05610edc565b92915050565b634e487b7160e01b600052603260045260246000fd5b600060018201610f3357610f33610edc565b5060010190565b601f821115610f8457600081815260208120601f850160051c81016020861015610f615750805b601f850160051c820191505b81811015610f8057828155600101610f6d565b5050505b505050565b815167ffffffffffffffff811115610fa357610fa3610d15565b610fb781610fb18454610ea8565b84610f3a565b602080601f831160018114610fec5760008415610fd45750858301515b600019600386901b1c1916600185901b178555610f80565b600085815260208120601f198616915b8281101561101b57888601518255948401946001909101908401610ffc565b50858210156110395787850151600019600388901b60f8161c191681555b5050505050600190811b0190555056fea26469706673582212201c455f71fdd87fe3b94dce7f5958f633bd2e860dbf7b50865cdbc175c8869def64736f6c63430008130033",
    "sourcePath": "d:/dapps/Equipo9LosCampos/contracts/RegistroGatos.sol",
    "compiler": {
        "name": "solc",
        "version": "0.8.19+commit.7dd6d404"
    },
    "functionHashes": {
        "agregarGato(string,string,string,string)": "3754b234",
        "gatos(uint256)": "0c409013",
        "getGatoById(uint256)": "85d67b7b",
        "getGatos()": "3031299c",
        "owner()": "8da5cb5b",
        "renounceOwnership()": "715018a6",
        "transferOwnership(address)": "f2fde38b"
    },
    "gasEstimates": {
        "creation": {
            "codeDepositCost": "844600",
            "executionCost": "26718",
            "totalCost": "871318"
        },
        "external": {
            "agregarGato(string,string,string,string)": "infinite",
            "gatos(uint256)": "infinite",
            "getGatoById(uint256)": "infinite",
            "getGatos()": "infinite",
            "owner()": "2345",
            "renounceOwnership()": "infinite",
            "transferOwnership(address)": "28364"
        }
    }
}